:020000040800F2
:1000000000500020D10B0008790B00087B0B000882
:100010007D0B00087F0B0008810B0008000000002A
:10002000000000000000000000000000830B00083A
:10003000850B000800000000870B0008890B0008F2
:10004000190C0008190C0008190C0008190C0008FC
:10005000190C0008190C0008190C0008190C0008EC
:10006000190C0008190C0008190C0008190C0008DC
:10007000190C0008190C0008190C0008190C0008CC
:10008000190C0008190C0008190C0008190C0008BC
:10009000190C0008190C0008190C0008190C0008AC
:1000A000190C0008190C0008190C0008190C00089C
:1000B000190C0008190C0008190C0008190C00088C
:1000C000190C0008190C0008190C0008190C00087C
:1000D000190C0008190C0008190C0008190C00086C
:1000E000190C0008190C0008190C00080000000089
:1000F0000000000000000000000000000000000000
:0C01000000000000000000005FF808F1A3
:10010C0010B5054C237833B9044B13B10448AFF345
:10011C0000800123237010BD880000200000000027
:10012C008838000808B5034B1BB103490348AFF3EB
:10013C00008008BD000000008C00002088380008FA
:10014C00034613F8012B002AFBD1181A013870470B
:10015C00002330B587B004460D46019300F040FEF5
:10016C0060B96CB9402D0BD102230293012301A974
:10017C0002A8039300F0F2FE00F044FE07B030BD7D
:10018C00002304F50034A402CDE904450293EDE705
:10019C0070B5012104461A20FFF7DAFF00F020FEAB
:1001AC00A0B90B4D0B4E043C00232946022054F8F9
:1001BC00042F00F05BFE38B90435B542F4D1A52408
:1001CC0000F020FE204670BD5A24F9E75A24F9E7C6
:1001DC00006800085068000830B5002489B0134D41
:1001EC001C22214601A8009402F0B8FE286890F861
:1001FC002420013AD2B2FD2A07D990F84C30012BB9
:10020C0014BF0420032009B030BD016A23466A469E
:10021C00074802F050FE20226846296802F08EFE44
:10022C00C0B2003818BF0120EDE700BF000000206D
:10023C00006C0008024B5022196802F0C3BE00BFCC
:10024C000000002007B54FF0FF338DF807000122A6
:10025C000DF10701024801F0F4FA03B05DF804FB5C
:10026C000001002070B5214E122133681B2094B080
:10027C009C6CFFF76DFF00F0B3FD24F0030404F158
:10028C0000641B4D04F53844A54220D100F0BAFDA2
:10029C00346850222146684602F094FE129B6D464B
:1002AC00089301238DF8243004F1280348342A469E
:1002BC0018685968083303C2A3421546F7D10024C5
:1002CC0068468DF84C40FFF763FF20460CE02A6827
:1002DC00A5F598410023022000F0C8FD0435002844
:1002EC00D2D000F08FFD5A2014B070BD0000002059
:1002FC0000B80008F0B595B05022002104466846BD
:10030C0002F02CFE154B1B6893F84C2093F824102C
:10031C000A40FF2A10D01A466E4603F128073546CC
:10032C0010685168083203C5BA422E46F7D11B6AD1
:10033C00089300238DF8243023460AAC03F12805DA
:10034C00224618685968083303C2AB421446F7D1E9
:10035C006846FFF71DFFA52015B0F0BD000000207A
:10036C002DE9F04F0025ADF5117D074610220C4606
:10037C0001A8002102F0F2FD1022002105A802F0D4
:10038C00EDFD1C2229460EA80D9502F0E7FD1C225E
:10039C00294616A8159502F0E1FD1C2229461EA837
:1003AC001D9502F0DBFD4AA801F002FC2FA802F01B
:1003BC00FDF8802259494AA801F0ECFC29462FA8E7
:1003CC0002F0FEF8C0B2A8420CBF4FF0A5084FF0E7
:1003DC005A084046FFF736FF4FF0FF33202215A98D
:1003EC004F4801F07CFA03374FF4967000F068FC2C
:1003FC0027F003074046FFF725FFB7F5904F5CD871
:10040C0000F0EEFC002858D112230C930123A40217
:10041C000990694644F0006409A80B940A9300F013
:10042C009DFD0546002848D1DFF8F490AF4231D845
:10043C0000F0E8FC00210DAB15AA4AA802F0A0F8C8
:10044C0019AA11AB00214AA802F09AF81DA92FA8ED
:10045C0002F0AFFC4AA801F0B0FB2FA802F0AAF8FA
:10046C0020220DA91DA802F069FD002854D10123FA
:10047C0025AD1DAC8DF8B8302D970FCC0FC594E879
:10048C000F0085E80F0025A8FFF734FFA520FFF724
:10049C00D9FE12E040467E1BFFF7D4FE102E01A9B8
:1004AC004FF0FF334FF01002484628BF102601F0E2
:1004BC0016FA014628B100F0A5FC0DF5117DBDE83A
:1004CC00F08F05AB01AA4AA802F05AF8A04626F014
:1004DC00030A0DF1140BA244C24511D1324605A9F1
:1004EC002FA802F02DFCC0B200280CBF4FF0A508BD
:1004FC004FF05A084046FFF7A5FE3444354495E7C3
:10050C004146002302205BF8042B00F0AFFC08F1FD
:10051C0004080028E0D0CEE75A20B8E714000020E9
:10052C000001002000F5003070B58002D0E90054C5
:10053C0000F06EFB72B6BFF34F8FBFF36F8F85F376
:10054C00088862B62346BDE87040184780783F287B
:10055C0001D8FFF7E7BF7047014800F09BB900BF17
:10056C00480100200EB4002170B50446B5B039AD79
:10057C0055F8046BC42203A8029102F0EFFC2A4642
:10058C00314602A8019502F0CFFC0B4B9C420DD1D9
:10059C0002A8FFF7D5FD421C4FF0FF33204692B264
:1005AC0002A901F04EF9142000F08AFB35B0BDE829
:1005BC00704003B0704700BF0001002038B50446FE
:1005CC0000F1100500F076FB44F8040B0A2000F053
:1005DC0077FBAC42F6D138BD2DE9F041002400F197
:1005EC007843ADF51A7DB3F5803F0546CDE902445D
:1005FC00CDE90444CDE90644CDE90844CDE90A44EB
:10060C00CDE90C440ED95A2301228DF807303C4811
:10061C004FF0FF330DF1070101F013F90DF51A7DC1
:10062C00BDE8F081374B47189F42ECD84FF00108DA
:10063C0054A88DF8078001F0BBFA8022324954A8E7
:10064C0001F0A8FB2E4E02A8FFF7B8FF0A2000F01D
:10065C0037FB4FF0FF33102202A9304601F0F1F8BE
:10066C000A2000F02DFB336810225B6806A94FF0BE
:10067C00FF33304601F033F921460AAB06AA54A8E1
:10068C0001F07EFF0A2000F01BFB4FF0FF3310221D
:10069C0006A9304601F0D5F80A2000F011FB102213
:1006AC0002A90AA802F04AFCC0B2E0B9A52342464E
:1006BC008DF8073030464FF0FF330DF1070101F094
:1006CC00C0F8AF4203D10EA801F077FAA6E73220AA
:1006DC0000F0F6FA29464FF0FF330122304601F0C4
:1006EC00B0F80135EDE75A2342468DF80730304615
:1006FC004FF0FF330DF1070101F0A3F8E3E700BF62
:10070C0000010020000001080400002070B5534CCB
:10071C001422002188B0204602F020FC4FF4FA731A
:10072C00012221464E4801F0DAF8D0B921464FF4A7
:10073C00FA7311F8012B4A4801F0D1F888B92578E1
:10074C002146033DEDB22A46464800F0AFF8064676
:10075C006559444800F0C0F8AE4204D05A20FFF767
:10076C0071FD5A201AE0A520FFF76CFD6378013B60
:10077C00072B12D8DFE803F014045D66446B59179D
:10078C00394B1B68C3F30B03042201934FF0FF3367
:10079C000DEB0201324801F054F8A52008B070BDF1
:1007AC0040F21F13F0E731492D48FFF7DBFE3049CB
:1007BC002B48FFF7D7FE2F492948FFF7D3FE2E49C8
:1007CC002748FFF7CFFE2D492548FFF7CBFE2C49D4
:1007DC002348FFF7C7FE2B492148FFF7C3FE2A49E0
:1007EC001F48FFF7BFFE29491D48FFF7BBFE1F49F5
:1007FC001B48FFF7B7FE26491948FFF7B3FECCE7B5
:10080C0001A800F085FB9DF8143063B1A53B18BF1F
:10081C004FF0FF33DBB28DF8033001224FF0FF3382
:10082C000DF10301B6E70123F5E70C48FFF78EFE47
:10083C00B3E7D4F80200D4F8061000BA09BAFFF7EF
:10084C00CBFEAAE7E178A078FFF782FCA5E7D4F805
:10085C000200A17900BAFFF783FD9EE7A4000020F7
:10086C000001002048010020002004E0A03800080E
:10087C00C9380008F7380008253900085339000832
:10088C0081390008AF390008DD3900080B3A00083F
:10089C00393A0008036823B94FF0FF32024BC0E924
:1008AC0000324368836070472083B8ED70B504460E
:1008BC00836805680A44914202D1D843A06070BD98
:1008CC0011F8010B4340082003F001065B0806B148
:1008DC006B400138F8D1EEE743688360704700B590
:1008EC0091B02422002107A802F038FB1422002129
:1008FC0001A802F033FB022301210693102306A862
:10090C00CDE90A1300F056FC014608B172B6FEE7B9
:10091C000F23CDE90300CDE90130059001A800F0CB
:10092C000BFE08B172B6FEE711B05DF804FB0000D7
:10093C0070B54FF4E13596B000F09EF9FFF70CFE60
:10094C00FFF7CDFF384B39489A690C2442F004026A
:10095C009A619A6902F004020092009A9A6942F034
:10096C0008029A619B6903F008030193019B304BC9
:10097C00C0E900350023C0E90233C0E90543036137
:10098C00C36100F02FFF034608B172B6FEE7294899
:10099C00294AC0E90233C0E90025C0E90434C0E9A2
:1009AC00063300F01FFF054608B172B6FEE74FF0A4
:1009BC00FF31224B224A42F21076C3E9002100F0AB
:1009CC0079F90446A520FFF73DFC00F073F9031BF1
:1009DC00B34220D9FDB9FFF7FFFB0428F5D801A3DA
:1009EC0053F820F0170A0008050A0008D709000878
:1009FC00050A00081F0A000802A8FFF71BFCFFF7F6
:100A0C0031FCFFF7E9FB0028DFD11B20FFF78AFD43
:100A1C00DBE70125D9E7FFF779FE5A28D5D000F09E
:100A2C0049F90446D1E700BF001002400001002044
:100A3C0000380140B800002000440040480100206C
:100A4C002083B8ED0E4B82B09A6942F001029A6194
:100A5C009A6902F001020092009ADA6942F080521F
:100A6C00DA61DB69074A03F080530193019B5368F9
:100A7C0023F0E06343F00073536002B0704700BF93
:100A8C000010024000000140102210B5044688B04E
:100A9C000DEB0200002102F061FA23682D4A93420B
:100AAC002ED12D4B40209A6904A942F480429A61C0
:100ABC009A69802402F480420092009A9A6942F06A
:100ACC0008029A619B6903F008030193019B0223BE
:100ADC00CDE9040303232148079300F093FA002384
:100AEC001E4804A9CDE90443069300F08BFA1C4A76
:100AFC00536843F0E06343F00403536008B010BD47
:100B0C00184A9342FAD1144B04A9DA69164842F4F4
:100B1C000032DA61DA6902F400320292029A9A69BE
:100B2C0042F004029A619B69042203F004030393CC
:100B3C00039B0223CDE904230323079300F062FAFD
:100B4C00002308210848CDE9041304A9069300F0FA
:100B5C0059FAD3E70038014000100240000C014064
:100B6C00000001400044004000080140FEE7FEE7A1
:100B7C00FEE7FEE7FEE770477047704700F08EB85F
:100B8C000B4A0346116810B509B90A49116010687F
:100B9C0009490A4C0344091B8B4206D902F0E6F9B9
:100BAC000C2303604FF0FF3010BD1360FCE700BF57
:100BBC0054010020F8240020005000200004000004
:100BCC0070470000FFF7FCFF0B480C490C4A002350
:100BDC0002E0D458C4500433C4188C42F9D3094AE7
:100BEC00094C002301E013600432A242FBD302F053
:100BFC00C3F9FFF79DFE7047000000208400002021
:100C0C00AC3B000888000020F4240020FEE770476D
:100C1C0010B54FF0FF320024044B1A611C61DA60EE
:100C2C00DC60FFF7F4FF204610BD00BF001002404F
:100C3C0038B50E4B05461A784FF47A73B3FBF2F3C2
:100C4C000B4A1068B0FBF3F000F08EF8044658B96C
:100C5C000F2D09D8024629464FF0FF3000F054F80A
:100C6C002046044B1D6038BD0120FCE72800002005
:100C7C00240000202C000020074A08B5136803202C
:100C8C0043F01003136000F02DF80F20FFF7D0FF96
:100C9C00FFF7D8FE002008BD00200240034A044B99
:100CAC0011681B780B441360704700BF580100207B
:100CBC0028000020014B1868704700BF5801002025
:100CCC0038B50446FFF7F6FF0546631C1EBF044B00
:100CDC001B78E418FFF7EEFF431BA342FAD338BD91
:100CEC002800002007490302CA6803F4E06322F4D9
:100CFC00E0621204120C134343F0BF6343F400335D
:100D0C00CB60704700ED00E0154B30B5DC68C4F3E8
:100D1C000224C4F10703251D042B28BF0423062D30
:100D2C004FF0FF3594BF0024033C05FA03F321EA8E
:100D3C000303A54022EA0502A340002843EA02036C
:100D4C00ACBF00F16040074A4FEA0313DBB2ABBF04
:100D5C0000F5614000F00F0080F80033135430BDF3
:100D6C0000ED00E014ED00E00138B0F1807F0BD213
:100D7C004FF0E023F021054A586182F8231000203F
:100D8C00072298611A6170470120704700ED00E05E
:100D9C00114AD36813F0100305D01049CB6943F006
:100DAC000203CB611023D268500706D50B4943F0E0
:100DBC000403CA6942F00102CA61074AD169C90732
:100DCC0008D50648C16941F00401C161D16921F01F
:100DDC000101D161D3607047002002406001002006
:100DEC00064B186910F0800007D0054A5A6002F1D2
:100DFC0088325A601869C0F3C01070470020024056
:100E0C0023016745034A0020136943F080031361F3
:100E1C00704700BF0020024070B50546FFF74AFF3F
:100E2C000646114CE368D80712D4E368990644BF10
:100E3C002023E360E368DA0606D4E369DB0703D416
:100E4C00E06810F0040007D0FFF7A2FF012003E0D8
:100E5C006B1CE7D00DB9032070BDFFF72BFF801B77
:100E6C00A842DFD9F7E700BF002002402DE9F84F78
:100E7C00DFF894A01F469AF818300546012B8846D7
:100E8C0091463FD001234CF250308AF81830FFF7CE
:100E9C00C3FF90BB012D03D0022D14BF04250225E6
:100EAC0000263346DFF864B03401C4F12001A4F10C
:100EBC00200207FA01F129FA04F4CAF81C300C4399
:100ECC0027FA02F21443DBF81020A4B242F001021C
:100EDC00CBF810204CF2503028F81640FFF79CFF4E
:100EEC00DBF8102022F00102CBF8102028B90136D3
:100EFC00F2B295424FF00003D6D800238AF818308E
:100F0C00BDE8F88F0220FBE76001002000200240C2
:100F1C0007230360074B1A6A8260DA6912F0020F2A
:100F2C000CBFA52200220274DB69C3F38203437455
:100F3C00704700BF002002400022064BDA61064BCE
:100F4C001A6942F002021A6158611A6942F04002B1
:100F5C001A61704760010020002002402DE9F04129
:100F6C00264F05463B7E8846012B44D001243C7617
:100F7C0003684CF25030022B1AD1FFF74DFF20B111
:100F8C00012000233B76BDE8F0811D4CF8612369FC
:100F9C004CF2503043F004032361236943F04003C7
:100FAC002361FFF739FF236923F004032361E8E78A
:100FBC00FFF732FF0028E3D14FF0FF33C8F80030C1
:100FCC002046AE680E4CD5E9023203EB8223B342C5
:100FDC00D7D93046FFF7B0FF4CF25030FFF71CFF6B
:100FEC00236923F00203236110B1C8F80060C8E73D
:100FFC0006F58066E7E70220C5E700BF6001002028
:10100C00002002402DE9F74F00242646DFF888C166
:10101C00624BDFF88CE1DFF88C810A6832FA06F556
:10102C0002D103B0BDE8F08F0127B74002EA0705F3
:10103C0037EA02027AD14A68032A07D8013A022A0F
:10104C0000F28380DFE802F092979D00122A00F0F4
:10105C0095806DD8112A00F08B80FF2D98BF8146AA
:10106C004FF00F0B88BF00F104094FEA8602D9F844
:10107C00007088BF203A0BFA02FA27EA0A0704FA32
:10108C0002F21743C9F80070D1F8049019F0805F90
:10109C004CD0DCF8182026F0030742F00102CCF803
:1010AC001820DCF8182007F1804702F001020192A9
:1010BC0007F5803706F0030A019A4FEA8A0ABA68E4
:1010CC000BFA0AFB22EA0B0B374A90425DD002F571
:1010DC00806290425BD002F58062904259D002F55A
:1010EC008062904214BF0422032202FA0AF242EAFE
:1010FC000B02BA609A6819F4801F14BF2A43AA43E2
:10110C009A60DA6819F4001F14BF2A43AA43DA6004
:10111C005A6819F4003F14BF2A43AA435A601A684C
:10112C0019F4803F14BF2A43AA431A60013674E7AE
:10113C00DFF878904A4508D010D8A9F580194A45AF
:10114C0003D0724501D0424587D18A68DAB1012AB1
:10115C004FF008040CBF076147617EE7DFF8509041
:10116C004A45F2D009F580394A45EDE7CC6874E779
:10117C00CC68043471E7CC6808346EE7CC680C3466
:10118C006BE7002469E7042467E70022ADE701223E
:10119C00ABE70222A9E700BF0010024000040140A7
:1011AC000000211000001110000801400000221066
:1011BC00000031102DE9F341054638B30368DB0715
:1011CC0010D42B689F075ED42B68190700F195800B
:1011DC002B685A0700F1C180EB69002B40F02C8181
:1011EC00002029E0904C636803F00C03042B07D01B
:1011FC00636803F00C03082B0AD16368DE0307D580
:10120C0023689C03DDD56B68002BDAD1012013E039
:10121C006B68B3F5803F12D1236843F480332360AD
:10122C00FFF748FD064623689803CAD4FFF742FD32
:10123C00801B6428F7D9032002B0BDE8F0819BB96C
:10124C00236823F480332360236823F480232360F2
:10125C00FFF730FD064623689903B2D5FFF72AFD48
:10126C00801B6428F7D9E6E7B3F5A02F236803D1D8
:10127C0043F480232360CFE723F480332360236877
:10128C0023F48023CBE7684C636813F00C0F07D072
:10129C00636803F00C03082B10D16368DA030DD4D8
:1012AC0023689B0702D52B69012BAFD123686A6990
:1012BC0023F0F80343EAC203236085E72A695B4BFA
:1012CC006AB101221A60FFF7F5FC064623689F07F6
:1012DC00ECD4FFF7EFFC801B0228F7D9ABE71A60C0
:1012EC00FFF7E8FC0646236898077FF56DAFFFF71C
:1012FC00E1FC801B0228F6D99DE7AA694A4E4B4BAC
:10130C00E2B10122C3F88024FFF7D4FC0446736ACF
:10131C009B070DD54FF4FA52454B1B68B3FBF2F308
:10132C00019300BF019B5A1E0192002BF9D14FE78C
:10133C00FFF7C0FC001B0228E9D97CE7C3F8802426
:10134C00FFF7B8FC0446736A9F077FF541AFFFF7C0
:10135C00B1FC001B0228F6D96DE7334CE369D800C9
:10136C0024D40127E36943F08053E361E36903F07C
:10137C0080530093009B2F4E3368D90518D5EB682A
:10138C00012B26D1236A43F001032362FFF792FC61
:10139C0041F288380646236A9B073FD5002F3FF45D
:1013AC001BAFE36923F08053E36115E70027E2E705
:1013BC00336843F480733360FFF77CFC80463368FA
:1013CC00DA05DCD4FFF776FCA0EB08006428F6D92C
:1013DC0031E7ABB9236A41F2883823F00103236269
:1013EC00236A23F004032362FFF764FC0646236A96
:1013FC009807D3D5FFF75EFC801B4045F7D91AE759
:10140C00052B236A03D143F004032362BAE723F0CC
:10141C0001032362236A23F00403B6E7FFF74AFCB7
:10142C00801B4045B7D906E700100240000042423D
:10143C0024000020007000402A4C626802F00C026C
:10144C00082A3ED00022022B274B1A662CD1FFF71C
:10145C0031FC06462368990120D42B6AB3F5803FF2
:10146C0005D16268A96822F400320A436260696A95
:10147C0062680B4322F474121343012263601A4B0B
:10148C001A66FFF717FC054623689A013FF5A8AECC
:10149C00FFF710FC401B0228F6D9CCE6FFF70AFC3C
:1014AC00801B0228D6D9C6E6FFF704FC0546236844
:1014BC009B017FF595AEFFF7FDFB401B0228F6D98B
:1014CC00B9E6012B3FF4A2AE60682B6A00F48032BF
:1014DC009A427FF49BAE6B6A00F47010C01A18BF6E
:1014EC000120A9E600100240000042420D4A536858
:1014FC0003F00C01082912D10B48C3F38341DB0321
:10150C00405C09D55368094AC3F340435043084A29
:10151C00D35CB0FBF3F07047064B5843704703485D
:10152C00704700BF00100240573A000800127A00C2
:10153C00553A000800093D002DE9F0410D460446DE
:10154C0010B90120BDE8F081444A136803F0070389
:10155C008B4228D321688E0730D4CA0743D43F4A24
:10156C00136803F00703AB4265D822683C4D12F0B8
:10157C00040F6CD1130706D56B68226923F46053F2
:10158C0043EAC2036B60FFF7B1FF6B68354AC3F3E4
:10159C000313D35CD840344B1860344B1868FFF7F6
:1015AC0047FB0020CEE7136823F007030B431360BF
:1015BC00136803F007038B42C3D1CBE7284B11F020
:1015CC00040F1EBF5A6842F4E0625A60080742BF1B
:1015DC005A6842F460525A605A68A06822F0F002CD
:1015EC0002435A60B9E762681D4E012A33681AD16A
:1015FC0013F4003FA5D0736841F2883823F003033D
:10160C0013437360FFF756FB07467368626803F079
:10161C000C03B3EB820FA2D0FFF74CFBC01B404571
:10162C00F3D903208EE7022A02D113F0007FE1E701
:10163C0013F0020FDEE7136823F007032B4313604C
:10164C00136803F00703AB427FF47BAF8DE76B6845
:10165C00E16823F4E0630B436B608BE700200240EE
:10166C0000100240453A0008240000202C00002005
:10167C00044B054A5B68C3F30223D35C034A10682E
:10168C00D8407047001002403D3A0008240000206A
:10169C00044B054A5B68C3F3C223D35C034A10684E
:1016AC00D8407047001002403D3A0008240000204A
:1016BC00026802F10C0353E8003F23F490730C32E0
:1016CC0042E8003102680029F2D102F1140353E818
:1016DC00003F23F0010302F1140C4CE80031002907
:1016EC00F3D1036B012B0BD102F10C0353E8003F38
:1016FC0023F0100302F10C0C4CE800310029F3D15B
:10170C00202380F8423000230363704710B5044651
:10171C000368C1681A6922F440520A431A6182684C
:10172C000069D9680243606921F4B05121F00C01C1
:10173C0002430A43DA605A69A16922F440720A43EF
:10174C005A610E4A934215D1FFF7A2FF1923434366
:10175C00626820689200B3FBF2F36422B3FBF2F1EF
:10176C0002FB11331B013233B3FBF2F303EB011316
:10177C00836010BDFFF77CFFE8E700BF0038014035
:10178C00F7B505460C4617461E462A68136834EA18
:10179C00030301D1002021E0701CF7D0FFF78AFA77
:1017AC00C01B86421CD3DEB12B68DA685107ECD51E
:1017BC00802CEAD0402CE8D01A681207E5D500241A
:1017CC0001941A68284601925B680193019BFFF70C
:1017DC006FFF082301206B6485F8404003B0F0BD17
:1017EC000320FBE710B5044648B390F8413003F0F2
:1017FC00FF021BB980F84020FFF746F9242322682A
:10180C0084F84130D368204623F40053D360FFF7AB
:10181C007DFF236800201A6922F490421A615A69EC
:10182C0022F02A025A61DA6842F40052DA6020236C
:10183C00606484F8413084F84230606310BD01204C
:10184C00FCE72DE9F843984690F841300446202BEC
:10185C000E4617463FD100293FD0002A3DD0212308
:10186C000025456480F84130FFF724FAA3688146CF
:10187C00B3F5805FA784E78403D123690BB93546A0
:10188C001E46E38C9BB253B943464A464021204640
:10189C00FFF776FF202350B984F841300AE0434625
:1018AC004A4680212046FFF76BFF28B120230320F6
:1018BC0084F84130BDE8F88322684EB935F8023B14
:1018CC00C3F308035360E18C013989B2E184D8E792
:1018DC0016F8013BF6E70220ECE70120EAE72DE9D8
:1018EC00F8431F4690F842300446202B0E46914692
:1018FC0048D1002948D0002A46D02223002545642F
:10190C0080F842300563FFF7D5F9A3688046B3F53C
:10191C00805FA4F82C90A4F82E9003D123690BB906
:10192C0035461E46E08D80B218B9202384F842302B
:10193C000AE03B46424620212046FFF721FF28B112
:10194C002023032084F84230BDE8F88323684EB985
:10195C005B68C3F3080325F8023BE38D013B9BB2A4
:10196C00E385DFE7A268B2F5805F02D032B9226965
:10197C0022B95968C9B206F8011BEEE7596801F0A3
:10198C007F01F8E70220DFE70120DDE72DE9F04FCA
:10199C00ADF61C0D06AD012300222C460DF583601F
:1019AC0013F0800F40F8232059B243F3060645F894
:1019BC00043B0CBF00231B2381EA460101324B4040
:1019CC00B2F5807FDBB2EBD1012300226C4913F01E
:1019DC00800F41F8043B43F306050CBF00231B2387
:1019EC00013283EA45030A2ADBB2F0D16323654A4C
:1019FC0086461370002394460126634F87F86330A4
:101A0C005EF8043FC3F1FF0354F82350EB1143EA93
:101A1C004503DBB2D90941EA43015D40C9B26940D3
:101A2C009D0945EA8305EDB24D40590941EAC303CE
:101A3C0083F06303DBB26B40FE540136B6F5807F56
:101A4C000CF8013FDCD1836BDFF840C10293436A91
:101A5C004F4F0393436B4F4E0493C36AFF20059380
:101A6C004D4BDFF838A101934D4BDFF83891DFF87F
:101A7C003881DFF814E100930DF5836512F8013B12
:101A8C0013F0800F14BF1B21002143F3060481EADD
:101A9C004401C9B203EB032441EA04244B400099EE
:101AAC0084EA036341F8043B00914FEA33614AF83E
:101ABC00041B4FEA33414FEA332348F8043B1EF82A
:101ACC00013B49F8041B002B54D055F82310029C01
:101ADC000C4494FBF0FBCBEB0B2BA4EB0B040DF1A8
:101AEC00180B5BF82440DDF80CB0594491FBF0FB6B
:101AFC00CBEB0B2BA1EB0B010DF1180B5BF82110B1
:101B0C0009024C40CBB3DDF810B055F82310594402
:101B1C0091FBF0FBCBEB0B2BA1EB0B010DF1180B9D
:101B2C005BF821100904614063B1059C55F8233022
:101B3C00234493FBF0F4C4EB04241B1B06AC54F8B5
:101B4C0023301B064B40019941F8043B01914FEAAD
:101B5C0033614CF8041B4FEA33414FEA332346F808
:101B6C00043B124B47F8041B934287D10DF61C0D16
:101B7C00BDE8F08F1C461946C3E71946D3E700BFF2
:101B8C0084010020AC220020AC110020AC09002004
:101B9C00AC050020AC010020AC0D0020AC1A0020DC
:101BAC00AC1E0020AC160020AC120020AC23002090
:101BBC004FF48C72002101F0D1B918B14FF48C7133
:101BCC0000F0EABC70470000C02AF8B504460D4688
:101BDC0016464AD0B2F5807F49D0802A40F0D18099
:101BEC000A23694F23603B681BB9FFF7CFFE012323
:101BFC003B602246294604F10803760942F8043F6B
:101C0C0005EB86068E4234D123680C2B40D00E2B6C
:101C1C006FD00A2B27D120465C4D5D4904F1A006FC
:101C2C00426955F8044B8768C2F30723CB5C7C40B0
:101C3C006340140E0C5D103083EA0443D4B20C5D87
:101C4C0083EA0463C2F307440C5D83EA042350F86F
:101C5C00044C836063400468C36063405A40036172
:101C6C0042618642DCD10020F8BD0C23B9E70E237B
:101C7C00B7E78B7848781B0443EA002308780431D3
:101C8C00034311F8010C43EA006342F8043FB9E73F
:101C9C0020463F493D4C00F1C005C26954F8046B25
:101CAC008768C2F30723CB5C7E407340160E8E5DB3
:101CBC00183083EA0643D6B28E5D83EA0663C2F31C
:101CCC0007468E5D83EA062350F80C6C83607340E4
:101CDC0050F8086CC360734050F8046C0361734097
:101CEC000668436173405A408361C2618542D4D116
:101CFC00B9E72046254D264904F1E006446A55F81B
:101D0C00042B8768C4F30723CB5C7A405340220E24
:101D1C008A5C876983EA0243E2B28A5C203083EAF8
:101D2C000263C4F307428A5C83EA022350F8142C42
:101D3C008360534050F8102CC360534050F80C2C67
:101D4C00036153404361DAB28A5C7A401F0ECF5D67
:101D5C0082EA0762C3F30727CF5DC3F30743CB5C6B
:101D6C0082EA072282EA034350F8042C8361534031
:101D7C000268C36153405C40036244628642BDD139
:101D8C0071E76FF01F006FE78001002084010020D5
:101D9C00AC2200202DE9F04F04460D461646C9B082
:101DAC0002A8FFF705FF04F10803324629466360D9
:101DBC0002A8FFF709FF8046002863D1029E039A10
:101DCC00310102EB0613525804F1180CA2605A6848
:101DDC002660E2609A68103B2261DA699E46626175
:101DEC00741E6246A1462C48B9F1000F33DDAEF1EA
:101DFC000405009502F110050195009FDFF89CB0D9
:101E0C0057F8045F0097EFB210F807A02F0E5BF89D
:101E1C002AA0C75DDFF888B05BF82770DFF884B0C4
:101E2C008AEA070AC5F30727C75DC5F307455BF8C0
:101E3C002770455D8AEA0707DFF86CA05AF8255031
:101E4C006F40019D42F8047BAA42D6D109F1FF39BB
:101E5C00AEF1100EC8E76FF00F00002E00FB04F47B
:101E6C00D8BF0024A1F11001D8BF002118191B59AB
:101E7C000CEB01024CF801304368536083689360AB
:101E8C00C368D36002A84FF48C7100F085FB404608
:101E9C0049B0BDE8F08F00BFAC220020AC0D002093
:101EAC00AC010020AC090020AC0500202DE9F04F5E
:101EBC000C6891B0D0F804C00894DCF80030D14F15
:101ECC0063404C6808930994DCF80430CE4E6340B0
:101EDC008C6809930A94DCF80830C96863400B914C
:101EEC000A93DCF80C30C94D4B400B930368C84C7B
:101EFC005B100293013B03930CF1300101930B989F
:101F0C00DDE908AB000E5FFA8AF356F8200057F8AB
:101F1C002330DDF828904340CBF3072055F8200000
:101F2C0020314340C9F3074054F82000584051F881
:101F3C00403C5840C3B20493030E0593C0F30743CF
:101F4C000693C0F3072307930B9B5FFA83FE4FEABC
:101F5C00196357F82E8056F823305FFA89FE88EA09
:101F6C000308CAF3072355F8233057F82EE088EA04
:101F7C000308CBF3074354F82330C9F3072988EA45
:101F8C0003084FEA1B6356F823305FFA8BFB8EEA8B
:101F9C00030E0B9BC3F3072355F823308EEA030E75
:101FAC00CAF3074354F823304FEA1A6A56F82AA0AA
:101FBC008EEA030E57F82B3083EA0A0A55F82930BB
:101FCC008AEA03090B9BC3F3074354F8233089EACD
:101FDC000309019B002B00F39380039B0C905C0185
:101FEC00029B002BD8BF002410346444616889EA3A
:101FFC0001060D96A3688EEA03070E97E068854BE1
:10200C0088EA00050F95290E595C206980EA016069
:10201C00C6F30721595C80EA0120C7F30741595CDC
:10202C0080EA01400499595C4840F1B213F801C0B0
:10203C00616908908CEA010CC7F30721595C8CEAA2
:10204C00012CC5F30741595C8CEA014C0599595C8C
:10205C008CEA016CF9B213F801E0A169E4698EEA2B
:10206C0001014FEA166E13F80EE03F0E81EA0E6185
:10207C00C5F3072E13F80EE0EDB281EA0E21DDF860
:10208C0018E05D5D13F80EE0CDF824C081EA0E4136
:10209C000A916540DC5DC6F3074685EA04659C5DE4
:1020AC0085EA0445079C1B5D040A5470040C1070EF
:1020BC009470040E4FEA1C2050714FEA1C40907132
:1020CC004FEA1C60D071080A85EA03231172507222
:1020DC00080C090ED172190A5173190C9173202135
:1020EC000B9313731B0E9072D4700DEB010082F8DE
:1020FC0004C0D37300F050FA002011B0BDE8F08F8B
:10210C000C9051F83C0C89EA00030D9351F8380CF3
:10211C008EEA000ECDF838E051F8340C88EA000055
:10212C00DDF810800F9051F8309C57F8288089EA20
:10213C0008084FEA106956F8299088EA0908C3F391
:10214C00072955F8299088EA0908CEF3074954F86D
:10215C00299088EA0908CDF82080DDF8148051F820
:10216C002C9C56F8288089EA08085FFA83F957F8FE
:10217C00299088EA0908CEF3072955F8299088EAAE
:10218C000908C0F3074954F8299088EA0908CDF8E2
:10219C0024805FFA8EF857F82890DDF818804FEA03
:1021AC001E6E54F8288089EA080851F8289C88EAA1
:1021BC0009084FEA136956F82990C3F3074388EAD4
:1021CC000908C0F3072955F82990C0B288EA090814
:1021DC00CDF82880DDF81C8057F8200055F82880B1
:1021EC0080EA080851F8240C56F82EE088EA000022
:1021FC0054F8233080EA0E0043400B93019B013BC3
:10220C0001937CE6AC1E0020AC120020AC1A00201E
:10221C00AC160020AC2200202DE9F04F0C6891B0D8
:10222C00D0F804C00894DCF80030D04F63404C6800
:10223C0008930994DCF80430CD4E63408C68099304
:10224C000A94DCF80830C96863400B910A93DCF8F7
:10225C000C30C84D4B400B930368C74C5B1002937A
:10226C00013B03930CF130010193DDF82090DDE983
:10227C0009BA5FFA89F34FEA1B6056F8200057F849
:10228C002330203143400B98C0F3072055F8200031
:10229C004340CAF3074054F82000584051F8403CE2
:1022AC005840C3B20493C0F307230593C0F307430C
:1022BC000693030E07930B9B5FFA83FE4FEA196399
:1022CC0057F82E8056F823305FFA8AFE88EA030806
:1022DC00CAF3072355F8233057F82EE088EA030891
:1022EC00CBF3074354F823304FEA1A6A88EA030801
:1022FC000B9B56F82AA01B0E56F823308EEA030EC1
:10230C00CBF3072355F823305FFA8BFB8EEA030ED1
:10231C00C9F3074354F82330C9F307298EEA030E97
:10232C0057F82B3083EA0A0A55F829308AEA030950
:10233C000B9BC3F3074354F8233089EA0309019B31
:10234C00002B00F39080039B0C905C01029B002BF4
:10235C00D8BF002410346444616889EA01060D96E4
:10236C00A368310E8EEA03050E95E068834B88EA6C
:10237C00000CCDF83CC0595C206980EA0167CCF3B5
:10238C000721595C87EA0127C5F30741595C87EAA5
:10239C0001470499595C4F40F1B2585C6169089748
:1023AC004840290E595C80EA0160CCF30741595C26
:1023BC0080EA01400599595C80EA0120E9B213F8E2
:1023CC0001E0A169C5F307258EEA01014FEA1C6EF5
:1023DC0013F80EE05FFA8CFC81EA0E61C6F3072E4F
:1023EC0013F80EE0099081EA0E21DDF818E0C6F32F
:1023FC00074613F80EE081EA0E410A9113F805E046
:10240C0013F80C50E46965409C5D85EA0E2585EA5D
:10241C000445079C1B5D3C0A54703C0C94703C0EAC
:10242C00D470040A10715471040C000ED071080A97
:10243C0085EA036311725072080C090ED172190AE5
:10244C005173190C917320210B9313731B0E907203
:10245C0017700DEB01009471D37300F09DF8002000
:10246C0011B0BDE8F08F0C9051F83C0C89EA0003D8
:10247C000D9351F8380C8EEA000ECDF838E051F877
:10248C00340C88EA0000DDF810800F9051F8309C75
:10249C0057F8288089EA08084FEA136956F82990FA
:1024AC0088EA0908C0F3072955F8299088EA090831
:1024BC00CEF3074954F8299088EA0908CDF8208012
:1024CC005FFA83F857F82890DDF8148055F82880C7
:1024DC0089EA080851F82C9C88EA09084FEA1E6919
:1024EC0056F8299088EA0908C0F3074954F829904E
:1024FC0088EA0908CDF824805FFA8EF857F82890FE
:10250C00DDF81880CEF3072E54F8288089EA0808E5
:10251C0051F8289C88EA09084FEA106956F8299066
:10252C00C0B288EA0908C3F3072955F8299057F86F
:10253C00200088EA0908CDF82880DDF81C8051F8C5
:10254C00249C56F82880C3F3074355F82EE089EAFB
:10255C00080854F8233088EA000080EA0E00434053
:10256C000B93019B013B01937FE600BFAC0D002058
:10257C00AC010020AC090020AC050020AC110020FF
:10258C0010B40C46012C11461A4602D110BCFFF7B0
:10259C008DBC10BCFFF740BE0A4619B1024B00219E
:1025AC001B681847704700BF300000206C220021C8
:1025BC0000F0D4BC10B16C21FFF7EEBF70470000E7
:1025CC00234A2DE9F041B1F1000818BF9646214A83
:1025DC00214918BF944602F1794208BF8E4602F594
:1025EC0074021E4902F5016208BF8C461C4918BFD3
:1025FC0011461C4A1C4F18BF17461C4A1C4E18BFCC
:10260C00164602F1D14202F5C01202F51E62194DB6
:10261C0018BF1546184A0346184C194818BF1446DB
:10262C00A2F11162A2F50C22A2F28E2218BF024670
:10263C000020C3E902ECC3E90000C3E90417C3E9B5
:10264C000665C3E90842C3F86880BDE8F08100BFA5
:10265C00D89E05C107D57C3667E6096A85AE67BB8F
:10266C0072F36E3C39590EF73AF54FA5310BC0FF9A
:10267C007F520E518C68059BA78FF964ABD9831FD1
:10268C00A44FFABE02460B462DE9F04FD1B0049090
:10269C00083248AD00F128062C4610685168083203
:1026AC0003C4B2422546F7D1194607AA03F14000EC
:1026BC004B780C781B0443EA0463CC780431234335
:1026CC0011F8024C884243EA042342F8043FEFD14C
:1026DC0097490DF1180A5546DDE94DEBDDE94876D1
:1026EC00DDE94A328C46DDF83C81DDF83091019110
:1026FC00A868DCF800104FEAF92484EAB914014404
:10270C008BEA0E0084EA796400EA090080EA0B0087
:10271C002144014441444FEA773888EAB70888EAF3
:10272C00B7580A44884447EA060107EA06001940EC
:10273C0001438844E868DCF804104FEA783401441B
:10274C0089EA0E00104080EA0E00594401444FEA19
:10275C00F22080EAB21080EA726084EAB804014484
:10276C0084EAB8540B440C4448EA070108EA070011
:10277C00314001430C442869DCF808102035014431
:10278C0082EA0900184080EA0900714401444FEACA
:10279C00F32080EAB31080EA736001444FEA74308E
:1027AC0080EAB40080EAB45001EB060E084448EA13
:1027BC00040108EA040639403143084455F80C6C0E
:1027CC00DCF80C100CF1200C0E444E4482EA030988
:1027DC0009EA0E094FEAFE2189EA020981EABE11D3
:1027EC0081EA7E614E440E444FEA703181EAB001B9
:1027FC0081EAB05106EB0709314444EA000604EAC9
:10280C00000706EA08063E43314455F8087C5CF89C
:10281C00106C3E44164483EA0E0202EA09025A4046
:10282C0016444FEAF92282EAB91282EA7962164416
:10283C004FEA713282EAB10282EAB152B0443244B8
:10284C0040EA010600EA010726403E43324455F8AF
:10285C00047C5CF80C6C3E441E448EEA090303EACB
:10286C00080383EA0E031E444FEAF82383EAB813E5
:10287C0083EA78631E444FEA723383EAB20304EBB3
:10288C00060B83EAB25341EA02043344044001EAE2
:10289C000206344323442E685CF8084C344489EA1D
:1028AC00080606EA0B0686EA0906744434444FEA25
:1028BC00FB2686EABB1686EA7B66344400EB040EE4
:1028CC004FEA733080EAB30080EAB350204442EA06
:1028DC0003040C4002EA0306344306196C685CF8E6
:1028EC00040C204488EA0B0404EA0E04484484EAED
:1028FC00080420444FEAFE2484EABE1484EA7E6471
:10290C00204401EB00094FEA763181EAB60181EAF5
:10291C00B651014443EA0600104003EA0604204382
:10292C000F1816A9A9427FF4E3AE36A9059101E070
:10293C00683A0008DAF84010DAF80C404FEAF14532
:10294C0085EA7145DAF8080085EA9125DAF82C1049
:10295C000AF1200A01444FEAB44080EAF41080EAFC
:10296C00D4002944014403918BEA0E004FEAF9216B
:10297C0081EAB91100EA090081EA796180EA0B0069
:10298C000844019907EA0605096C084403990844B0
:10299C00404402440292CAF8281047EA06024FEA61
:1029AC00773181EAB7011A402A4381EAB7511144C1
:1029BC00DAF8242001444FEAF24585EA72455AF8C8
:1029CC00100C85EA9225DAF81020DDF808C01444C2
:1029DC004FEAB04282EAF01282EAD0022C4414444C
:1029EC00029A89EA0E051540019A85EA0E05526C89
:1029FC00CAF82C405A4422441544029A4FEAF22257
:102A0C0082EABC1282EA7C622A4403EB020B47EA9C
:102A1C0001054FEA713307EA010C83EAB103354033
:102A2C0045EA0C0583EAB1532B441344039A5AF834
:102A3C000CCC4FEAF24585EA724585EA9225DAF824
:102A4C00142000EB02084FEABC4282EAFC1282EA34
:102A5C00DC02A8449044029A4FEA733589EA0200DA
:102A6C00019A00EA0B00926C80EA0900724442441D
:102A7C0010444FEAFB2282EABB1282EA7B620244D8
:102A8C0041EA030006EB020E85EAB30501EA0306F0
:102A9C003840304385EAB355054415445AF8086C60
:102AAC00DAF818204FEAF44080EA744080EA942067
:102ABC000CEB02044FEAB64282EAF61282EAD60224
:102ACC0004441444029A03EA050C82EA0B0000EA5F
:102ADC000E005040019ACAF83080D26CCAF83440CB
:102AEC004A44224410444FEAFE2282EABE1282EA91
:102AFC007E62024407EB02094FEA753043EA050790
:102B0C0080EAB5000F4047EA0C0780EAB55038441C
:102B1C0010445AF8047CDAF81C204FEAF84C8CEA82
:102B2C00784C16444FEAB7428CEA982C82EAF7129A
:102B3C0082EAD70266441644019ADDF80880126DC9
:102B4C008BEA0E0C0CEA090C32448CEA0B0C424456
:102B5C0062444FEAF92C8CEAB91C8CEA796C9444E7
:102B6C004FEA703282EAB00201EB0C0882EAB052F2
:102B7C0045EA00010292194005EA00021143029A4B
:102B8C00CAF838600A444FEAF44181EA744181EA98
:102B9C009421DAF820406244DAF800C03C440C443A
:102BAC004FEABC4181EAFC1181EADC010C44019939
:102BBC008EEA0907496D07EA08072144594487EA58
:102BCC000E070F444FEAF82181EAB81181EA7861C7
:102BDC00394403EB010B4FEA723383EAB20383EA05
:102BEC00B25340EA020702932F4000EA02031F434C
:102BFC00029BCAF83C403B440B444FEAF64181EA45
:102C0C00764181EA9621DAF82460DAF80470664499
:102C1C0031444FEAB74686EAF71686EAD7063144BE
:102C2C0002910199DDF808C0896D89EA08066144B2
:102C3C0006EA0B06714486EA09060E444FEAFB21AC
:102C4C0081EABB1181EA7B61314405EB010E42EA5A
:102C5C0003064FEA7335CAF840C0064002EA030C7B
:102C6C0085EAB30546EA0C0685EAB35535446E1879
:102C7C00DAF80810039D4FEAF44C3D444FEAB14793
:102C8C0087EAF11787EAD1078CEA744C01998CEA30
:102C9C00942C6544C96D3D4488EA0B0707EA0E077E
:102CAC002944494487EA08070F444FEAFE2181EA88
:102CBC00BE1181EA7E6143EA060C394403EA060937
:102CCC000CEA020C4CEA090C00EB010901984FEAE2
:102CDC007637203087EAB6070190059887EAB65711
:102CEC00CAF84450BC44504501EB0C077FF422AEAB
:102CFC004A93029BCDE9061C4693049B4B92CDF85C
:102D0C003C811A1D4594CDF838B1CDF834E1499683
:102D1C004795CDF83091489747A8243352F8041FB3
:102D2C0050F8044F934221441160F7D106A84FF498
:102D3C009471FFF731FC002051B0BDE8F08F00BF5B
:102D4C002DE9F84305460E4614467AB3036803F0A2
:102D5C003F079B18036022BF4368013343609FB158
:102D6C00C7F140094A450FD300F128084A4608EB41
:102D7C00070000F027F941462846FFF783FCB0B95D
:102D8C003C4407464E44403C264404E02846FFF7AA
:102D9C0079FC60B9403C3F2CA6EB0401F6D82CB171
:102DAC0005F128002246384400F00CF90020BDE85B
:102DBC00F88370B50D468021036800F1280603F0F6
:102DCC003F035A1C382A0344044683F8281006EBA8
:102DDC00020061D80021C2F1380200F0BFF8D4E93A
:102DEC0000315A0F42EAC102DB0012BA1BBA31465B
:102DFC00204622666366FFF745FC00284BD1E37A38
:102E0C002B7063896B70A3681B0AAB70A368EB70A3
:102E1C00E37B2B71E3896B71E3681B0AAB71E3688D
:102E2C00EB71E37C2B72638A6B7223691B0AAB72A6
:102E3C002369EB72E37D2B73E38A6B7363691B0A63
:102E4C00AB736369EB73E37E2B74638B6B74A36955
:102E5C001B0AAB74A369EB74E37F2B75E38B6B7567
:102E6C00E3691B0AAB75E369EB7594F823302B7699
:102E7C00638C6B76236A1B0AAB76236AEB76A36EA4
:102E8C004BB994F827302B77E38C6B77636A1B0A6A
:102E9C00AB77636AEB7770BD0021C2F1400200F0A2
:102EAC005DF831462046FFF7EDFB0028F3D10146D3
:102EBC003822304691E7F0B51C469DB0064601A875
:102ECC000F461546FFF772FB214601A8FFF778FB6A
:102EDC00044658B93A46314601A8FFF731FF04467B
:102EEC0020B9294601A8FFF764FF044601A86C210C
:102EFC00FFF752FB20461DB0F0BD000000B59BB0A3
:102F0C00009104916FF000410591029105490391E4
:102F1C00694600F0B7F90022009B1A701BB05DF8EF
:102F2C0004FB00BF0802FFFF13460A460146024895
:102F3C000068FFF7E3BF00BF3400002010B5013973
:102F4C000244904201D1002005E0037811F8014FB2
:102F5C00A34201D0181B10BD0130F2E70346024416
:102F6C00934200D1704703F8011BF9E7014B186835
:102F7C00704700BF3400002070B500260C4D0D4C7E
:102F8C00641BA410A64209D100F078FC00260A4D5F
:102F9C000A4C641BA410A64205D170BD55F8043B25
:102FAC0098470136EEE755F8043B98470136F2E7AF
:102FBC00A43B0008A43B0008A43B0008A83B000865
:102FCC00704770470A44914200F1FF3300D17047BB
:102FDC0010B511F8014B914203F8014FF9D110BD16
:102FEC0038B50546002940D051F8043C0C1F002B85
:102FFC00B8BFE41800F0DEF81C4A136833B96360FC
:10300C0014602846BDE8384000F0DAB8A34208D96D
:10301C00206821188B4201BF19685B680918216070
:10302C00EDE71A465B680BB1A342FAD91168501848
:10303C00A0420BD120680144501883421160E0D1AA
:10304C0018685B68084410605360DAE702D90C23F7
:10305C002B60D6E7206821188B4201BF19685B688A
:10306C000918216063605460CBE738BDF024002060
:10307C0070B50F4E0C463168054611B900F0AAFB2D
:10308C0030602146284600F0A5FB431C03D14FF0CD
:10309C00FF34204670BDC41C24F00304A042F8D0B9
:1030AC00211A284600F096FB0130F2D1EFE700BF61
:1030BC00EC2400202DE9F843CD1C25F00305083540
:1030CC000C2D38BF0C25002D064601DBA94204D976
:1030DC000C2333600020BDE8F883DFF8D48000F0C7
:1030EC0069F8D8F800301C4644BB29463046FFF737
:1030FC00BFFF431C044658D1D8F800402746002F88
:10310C0043D1002C4BD023683946304604EB0309DD
:10311C0000F060FB814542D1216830466D1A29468A
:10312C00FFF7A6FF01303AD023682B442360D8F870
:10313C0000305A6862BBC8F800700FE02268521B5E
:10314C0020D40B2A17D96119A342256018BF5960E6
:10315C00636808BFC8F8001062514B60304600F03D
:10316C002FF804F10B00231D20F00700C21A1CBF1E
:10317C001B1AA350AFE76268A3420CBFC8F800202B
:10318C005A60EBE723466468AEE73C467F68B6E7D7
:10319C001A465B68A342FBD100235360DEE70C2385
:1031AC003046336000F00CF894E70560D6E700BFBA
:1031BC00F02400200148FFF703BF00BFE8240020E3
:1031CC000148FFF7FEBE00BFE82400202DE9F047C0
:1031DC001F468E688246BE420C4690460B682DD820
:1031EC00B1F90C2012F4906F26D06569096905EBD2
:1031FC004505A3EB010905EBD5757B1C4B446D1004
:10320C009D4238BF1D46530527D52946FFF752FF6F
:10321C00064660B34A462169FFF7D4FEA38923F41E
:10322C00906343F08003A38126614E4426603E46A2
:10323C006561A5EB0905A560BE4200D93E46324644
:10324C004146206800F0ACFA0020A3689B1BA360E9
:10325C00236833442360BDE8F0872A4600F0D8FA8F
:10326C0006460028E0D150462169FFF7B9FE0C2331
:10327C00CAF80030A3894FF0FF3043F04003A3811C
:10328C00E9E700002DE9F04F98468B8907461B06AD
:10329C000D4614469DB010D50B6973B94021FFF74C
:1032AC0009FF2860286130B90C233B604FF0FF30D8
:1032BC001DB0BDE8F08F40236B61002309932023E0
:1032CC008DF8293030234FF00109CDF80C80DFF850
:1032DC0098818DF82A3023469A4613F8012B0AB1AF
:1032EC00252AF9D1BAEB040B0BD05B4622462946B2
:1032FC003846FFF76BFF013000F0A780099A5A445B
:10330C0009929AF80030002B00F09F8000234FF0B8
:10331C00FF32CDE905230AF1010A049307938DF8D6
:10332C0053301A935446052214F8011B4E4800F0F2
:10333C0061FA049AD8B9D00644BF20238DF85330D3
:10334C00110744BF2B238DF853309AF800302A2BE9
:10335C0015D0544600204FF00A0C079A214611F85C
:10336C00013B303B092B4BD9B0B1079214E0A0EBD9
:10337C00080309FA03F31343A2460493D2E7039B11
:10338C00191D1B680391002BBBBF5B4242F002026C
:10339C0007930793B8BF049223782E2B0AD1637836
:1033AC002A2B32D1039B02341A1D1B68039243EA69
:1033BC00E3730593DFF8B4A003225046217800F0A4
:1033CC0019FA38B14022049BA0EB0A008240134347
:1033DC000134049314F8011B062225488DF828109B
:1033EC0000F008FA002836D0224B1BBB039B073396
:1033FC0023F0070308330393099B334409936AE7CB
:10340C000C4601200CFB0232A8E700234FF00A0CFB
:10341C00194601340593204610F8012B303A092A3D
:10342C0003D9002BC6D00591C4E7044601230CFB3D
:10343C000121F0E703AB00932A4638460E4B04A952
:10344C00AFF30080421C0646D6D1AB895B063FF534
:10345C002DAF09982CE703AB00932A463846064B50
:10346C0004A900F07DF8EDE7683B00086E3B00080E
:10347C00723B000800000000D93100082DE9F0472C
:10348C00164698468A680B6907469342B8BF13469E
:10349C00336091F843200C46DDF820900AB10133DB
:1034AC0033602368990642BF336802333360256862
:1034BC0015F0060506D104F1190AE36832689B1A67
:1034CC00AB422BDC94F843302268003B18BF01233D
:1034DC00920630D44146384604F14302C8470130C5
:1034EC0023D02368226903F00603042B14BF0025A4
:1034FC0033684FF0000608BFE56804F11A0408BFF2
:10350C00ED1A54F8123C08BF25EAE5759342C4BF86
:10351C009B1AED18B5421AD1002008E0012352463F
:10352C0041463846C847013003D14FF0FF30BDE863
:10353C00F0870135C1E73020E11881F843005A1CAF
:10354C0094F845102244023382F84310C2E7012359
:10355C00224641463846C8470130E6D00136D9E705
:10356C002DE9FF470F7E9146782F80460C469A46F0
:10357C000C9E01F1430207D8622F0AD8002F00F0ED
:10358C00D380582F00F0BA8004F1420684F84270C0
:10359C003AE0A7F16303152BF6D801A151F823F0FB
:1035AC0005360008193600089535000895350008D1
:1035BC009535000895350008193600089535000832
:1035CC009535000895350008953500081B3700081F
:1035DC0043360008D53600089535000895350008A7
:1035EC003D3700089535000843360008953500082E
:1035FC0095350008DD36000833681A1D1B683260EB
:10360C0004F1420684F8423001239EE033682068BE
:10361C00191D3160060601D51D6803E04506FBD572
:10362C00B3F90050002D03DA2D236D4284F843309A
:10363C000A23594811E021683368080653F8045BE3
:10364C0002D4490648BFADB26F2F336014BF0A23B2
:10365C0008235148002184F843106668002EA8BF47
:10366C002168A660A4BF21F0040121600DB9002ED1
:10367C004BD01646B5FBF3F103FB1157C75D06F8AB
:10368C00017D2F46BB420D46F4D9082B0BD1236884
:10369C00DF0708D5236961689942DEBF302306F83D
:1036AC00013C06F1FF36921B22614B4621464046F7
:1036BC00CDF800A003AAFFF7E1FE01304AD14FF08C
:1036CC00FF3004B0BDE8F087236843F0200323608B
:1036DC007827324884F84570236831681F0651F802
:1036EC00045B02D45F0648BFADB23160D90744BF5A
:1036FC0043F0200323601DB11023ABE72648E9E714
:10370C00236823F020032360F6E71646BDE73368F1
:10371C002568181D616930602E061B6801D519607B
:10372C0002E06806FBD51980002316462361BCE72E
:10373C00336800211A1D32601E686268304600F042
:10374C0059F808B1801B606063682361002384F81A
:10375C004330AAE73246494640462369D0470130F8
:10376C00ADD023689B0713D4E068039B9842B8BF85
:10377C001846A6E70123324649464046D047013059
:10378C009DD00135E36803995B1AAB42F2DCEBE7A1
:10379C00002504F11906F5E7793B00088A3B00087F
:1037AC00884210B501EB020402D98442234607D8A3
:1037BC00431EA14208D011F8012B03F8012FF8E7A2
:1037CC00014602448A4200D110BD13F8014D02F8A3
:1037DC00014DF7E738B50023054D044608462B602C
:1037EC00FDF7CEF9431C02D12B6803B1236038BD21
:1037FC00E4240020034610B5C9B202449342184693
:10380C0001D1002003E0047801338C42F6D110BDC5
:10381C002DE9F041804615460C4621B91146BDE80C
:10382C00F041FFF747BC2AB9FFF7DAFB002420462A
:10383C00BDE8F08100F01AF88542064602D8B5EBD7
:10384C00500FF4D829464046FFF734FC07460028B1
:10385C00ECD0B5422A46214628BF3246FFF7B2FBD0
:10386C0021464046FFF7BCFB3C46E0E751F8043CE0
:10387C00181F002BBCBF0B58C0187047F8B500BF01
:10388C00F8BC08BC9E467047F8B500BFF8BC08BC35
:04389C009E4670478D
:1038A0002D2D2D2D2D2D2D2D2D2D2D2D2D2D2D2D48
:1038B0002D2D2D2D2D2D2D2D2D2D2D2D2D2D2D2D38
:1038C0002D2D2D2D2D2D2D2D00312E2020476574D1
:1038D00020426F6F746C6F616465722056657273FD
:1038E000696F6E20494420202020202020202020A5
:1038F000202D2D3E203100322E202047657420439C
:10390000686970204964656E746966696361746989
:103910006F6E204E756D6265722020202020202D54
:103920002D3E203200332E202052656164204D65EB
:103930006D6F727920436F6E74656E7473202020F2
:10394000202020202020202020202020202D2D3E3F
:10395000203300342E2020457261736520466C614F
:103960007368204D656D6F72792020202020202003
:1039700020202020202020202020202D2D3E2034FB
:1039800000352E202047657420466C6173682052F4
:103990006561642050726F74656374696F6E204C4A
:1039A0006576656C20202020202D2D3E20350036A8
:1039B0002E2020476574204170706C6963617469C2
:1039C0006F6E2055706461746520202020202020B7
:1039D000202020202020202D2D3E203600372E2094
:1039E000204A756D7020746F204170706C6963613E
:1039F00074696F6E20436F64652020202020202092
:103A000020202020202D2D3E203700382E20204839
:103A1000656C7020202020202020202020202020C5
:103A20002020202020202020202020202020202096
:103A30002020202D2D3E203800454E44000000005F
:103A40000001020304000000000000000001020366
:103A50000406070809010202030405060708090A0B
:103A60000B0C0D0E0F101000982F8A4291443771E5
:103A7000CFFBC0B5A5DBB5E95BC25639F111F159F1
:103A8000A4823F92D55E1CAB98AA07D8015B831233
:103A9000BE853124C37D0C55745DBE72FEB1DE80DF
:103AA000A706DC9B74F19BC1C1699BE48647BEEF0E
:103AB000C69DC10FCCA10C246F2CE92DAA84744A99
:103AC000DCA9B05CDA88F97652513E986DC631A80F
:103AD000C82703B0C77F59BFF30BE0C64791A7D5EE
:103AE0005163CA0667292914850AB72738211B2E76
:103AF000FC6D2C4D130D385354730A65BB0A6A765E
:103B00002EC9C281852C7292A1E8BFA24B661AA869
:103B1000708B4BC2A3516CC719E892D1240699D679
:103B200085350EF470A06A1016C1A419086C371EF2
:103B30004C774827B5BCB034B30C1C394AAAD84ED0
:103B40004FCA9C5BF36F2E68EE828F746F63A5780B
:103B50001478C8840802C78CFAFFBE90EB6C50A49E
:103B6000F7A3F9BEF27871C6232D302B2000686CC4
:103B70004C00656667454647003031323334353690
:103B800037383941424344454600303132333435C9
:0C3B9000363738396162636465660000F6
:083B9C00B0C5FF7F010000002D
:043BA40031010008E3
:043BA8000D01000803
:103BAC000068000863616E2072656164206D656D4C
:103BBC006F72793F4E6F7420536563726574204B3E
:103BCC0065795F5F00127A000100000010000000B0
:103BDC00692F00083800002000000000AC230020F2
:103BEC00142400207C2400200000000000000000B1
:103BFC0000000000000000000000000000000000B9
:103C0C0000000000000000000000000000000000A8
:103C1C000000000000000000000000000000000098
:043C2C000000000094
:0400000508000BD113
:00000001FF
